:0400000002001132B7
:03000B000200915F
:10006A00750800750900750AC0750BF9750CA47539
:10007A000DB0750E99750F927510827511F875127B
:07008A008075139002000EC7
:03000E000200B934
:10009100C0E0C007C001C0D075D000740EB5090D15
:1000A100750900AF080508EF240AF987900509D002
:1000B100D0D001D007D0E032758901758A00758CE6
:0B00C1000075A882D28C75900080FEB4
:06004000E478FFF6D8FD94
:10001E007900E94400601B7A009000D0780175A049
:10002E0000E493F2A308B8000205A0D9F4DAF27541
:02003E00A0FF21
:100046007800E84400600A790175A000E4F309D855
:10005600FC7800E84400600C7900900001E4F0A30D
:04006600D8FCD9FAEF
:0D0011007581131200CCE582600302000E21
:0400CC007582002217
:00000001FF
