:03000000020006F5
:03005F0002000399
:0300030002006296
:100062007F00C290EF240540168F0674102EFF24E5
:10007200FF929075820AC00712009CD00780E5EFBC
:10008200240550E08F06EE24F0FF24FF9290758243
:100092000AC00712009CD00780E5AF827E00C3EE43
:1000A2009F500D7D00C3ED9F50030D80F80E80EE32
:0100B200222B
:06003500E478FFF6D8FD9F
:100013007900E94400601B7A009000B7780175A06D
:1000230000E493F2A308B8000205A0D9F4DAF2754C
:02003300A0FF2C
:10003B007800E84400600A790175A000E4F309D860
:10004B00FC7800E84400600C7900900001E4F0A318
:04005B00D8FCD9FAFA
:0D0006007581071200B3E58260030200035C
:0400B3007582002230
:00000001FF
