:03000000020006F5
:03005F0002000399
:0300030002006296
:200062007F00D2908F82C007120086D007C2908F0674FFC39EF582C006120086D00674106C
:190082002EFF80DEAF827E00C3EE9F500B7D78ED14FCFD70FA0E80F02287
:06003500E478FFF6D8FD9F
:200013007900E94400601B7A0090009F780175A000E493F2A308B8000205A0D9F4DAF275F4
:02003300A0FF2C
:20003B007800E84400600A790175A000E4F309D8FC7800E84400600C7900900001E4F0A3C3
:04005B00D8FCD9FAFA
:0D00060075810712009BE582600302000374
:04009B007582002248
:00000001FF
