:03000000020006F5
:03005F0002000399
:0300030002006296
:10006200C282C2903082FDB2907582E81200738023
:10007200F3AF827E00C3EE9F500D7D00C3ED9F5013
:08008200030D80F80E80EE2250
:06003500E478FFF6D8FD9F
:100013007900E94400601B7A0090008E780175A096
:1000230000E493F2A308B8000205A0D9F4DAF2754C
:02003300A0FF2C
:10003B007800E84400600A790175A000E4F309D860
:10004B00FC7800E84400600C7900900001E4F0A318
:04005B00D8FCD9FAFA
:0D00060075810712008AE582600302000385
:04008A007582002259
:00000001FF
