:0400000002002132A7
:03000B0002008070
:0100130032BA
:03001B000200CA16
:06007A0075080002001EE3
:03001E00020114C8
:20008000C020C0E0C0F0C082C083C007C006C005C004C003C002C001C000C0D075D000209A
:2000A000A00BE50804F5087582E81201CDD0D0D000D001D002D003D004D005D006D007D0DC
:2000C00083D082D0F0D0E0D02032C020C0E0C0F0C082C083C007C006C005C004C003C00269
:2000E000C001C000C0D075D00020A20BE50814F5087582E81201CDD0D0D000D001D002D03D
:2001000003D004D005D006D007D083D082D0F0D0E0D02032758911758C00758A00758D003E
:20012000758B0075A88AD28CD28E750954750A4F750B54750C41750D4C750E3A750F0075A0
:2001400082381201BD7582011201BD7582061201BD75820E1201BD7582801201BD7E007F67
:200160000090000975F040C007C006120A3FAC82AD83D006D0078E028F03C3EA9CEB9D500B
:2001800018EE2409F98782C007C0061201ADD006D0070EBE00CB0F80C87582871201BD856F
:2001A00008821201E47582B01201CD80EC858290D2B0C2B275820A1201CDD2B22285829020
:2001C000C2B0C2B275820A1201CDD2B222AF827E00C3EE9F500D7D00C3ED9F50030D80F8B2
:2001E0000E80EE22AF827E00C007C0067492C0E0740AC0E07480C0E07410C0E07400C0E095
:200200007440C0E01202EEE58124F8F58190001075F040020216AD82AE83AFF08D828E8312
:200220008FF0120A57FC60188C820DBD00010EC007C006C0051201ADD005D006D00780DC81
:01024000229B
:050A9200253032750063
:06005000E478FFF6D8FD84
:20002E007900E94400601B7A00900AA2780175A000E493F2A308B8000205A0D9F4DAF275CC
:02004E00A0FF11
:200056007800E84400600A790175A000E4F309D8FC7800E84400600C7900900001E4F0A3A8
:04007600D8FCD9FADF
:20024100C01A85811AC082058105810581E51A24FBF8A91A0909E6F708E609F708E609F72B
:20026100A81A080886820886830886F0120A57FAA3120A57FBA3120A57FF74012AFCE43BC7
:20028100FD8F06A81A080886820886830886F0EC120A77A3ED120A77A3EE120A778A828B05
:2002A100838FF0A81A08E6120A77851A81D01A2285822585832685F02775352575360075E7
:2002C100374085213885223985233A85243B9002411203D4AE82AF83AB25AC26AD278B8281
:2002E1008C838DF0E4120A778E828F8322C01AE581F51A24F8FF8F3BE51A24FBFF8F35752C
:200301003600753740E51A24F8F8863808863908863A9002411203D4AE82AF83E51A24FB1E
:1A032100F886030886040886058B828C838DF0E4120A778E828F83D01A22DE
:20033B00AF82C02BC02CC02D1203488007C029C02A8F82221581158115810533E4B53302FB
:20035B00053422AF8274302FFF24C6500B74072FFFE52860034307208F8202033BE582FFA5
:20037B00C4540FF582C00712035ED007740F5FF58202035E85821BAB2EAC2FAD30AE31AABB
:20039B0032751D208A07EF2FF51CEE235401451CFAEB2BFBEC33FCED33FDEE33FEC3EA9533
:2003BB001B4008EAC3951BFA430301D51DD68B2E8C2F8D308E318A322285822985832A85A4
:2003DB00352B85362C85372DE4F533F534AD38AE39AF3A8D828E838FF0120A57FC74012D38
:2003FB00F538E43EF5398F3AECFF7003020A1BBF25028003020A13E4F53CF53DF53EF53FE1
:20041B00F540F541F542F543F545F552F5537546FF7547FF85384C85394D853A4E854C8235
:20043B00854D83854EF0120A57F54FA385824C85834D854C38854D39854E3A7425B54F08C1
:20045B00854F8212033B808574D0254F5068E54F24C6406274FFB54636B5473385521B855C
:20047B00531C90000A120A22858250858351AA4F7E00EA2550FAEE3551FEEA24D0F552EE15
:20049B0034FFF553E55245537093753D01808E85461B85471C90000A120A22AE82AB83AA85
:2004BB004F7D00EA2EFEED3BFBEE24D0F546EB34FFF547020438742EB54F1574FFB5460539
:2004DB00B547028003020438E4F546F547020438749F254F500EE54F24854008534FDF75A9
:2004FB00280180037528007420B54F0302059E742BB54F03020598742DB54F0280797442BD
:20051B00B54F030205A47443B54F030205B07444B54F030207347446B54F0302074B7448CC
:20053B00B54F030204387449B54F03020734744AB54F03020438744CB54F028052744FB547
:20055B004F0302073C7450B54F030206C97453B54F0280627454B54F030204387455B54FC4
:20057B00030207417458B54F03020746745AB54F03020438020750753C01020438753E01E1
:20059B00020438753F01020438754101020438754201020438E541600AE53B14F9893B871C
:2005BB0006800BE53B24FEFB8B3B8B0187068E8212033B02075EE53B24FDFE8E3B8E01878E
:2005DB000209870309870619198A2E8B2F8E308A828B838EF0120A3F85824C85834D74FF65
:2005FB00B54609B54706854C46854D47E53C7037C3E54C9552E54D9553502CE552C3954C96
:20061B00F550E553954DF551AA50AE51155074FFB550021551EA4E600875822012033B8055
:20063B00E7855052855153AB46AE47852E82852F838530F0120A57FA8A4A6034C3E49B74E6
:20065B00808EF063F08095F050261BBBFF011E854A82C006C00312033BD003D006AA2EAC68
:20067B002FAD300ABA00010C8A2E8C2F8D3080BBE53C700302075EC3E54C9552E54D955327
:20069B00400302075EE552C3954CF550E553954DF551AA50AE51155074FFB550021551EAED
:2006BB004E700302075875822012033B80E4E53B24FDFE8E3B8E01870209870309870619D0
:2006DB00198A2E8B2F8E30AE30BE800040047B438014BE600040047B50800BBE400040040A
:2006FB007B4980027B588B82C00312033B75823A12033B75823012033B75827812033BD01F
:20071B0003BB4902800BBB50028006852F82120378852E82120378802A75400175450A806E
:20073B0022754508801D75450A80187545108013754301800E854F8212033B8006855052CA
:20075B00855153E5436060E53B24FCFE8E3B8E018752098753098754098755191919855230
:20077B002E85532F855430855531752E97752F0A753080852E52852F538530547401255207
:20079B00FAE43553FBAE548A2E8B2F8E308552828553838554F0120A57FEFB70030203E862
:2007BB008B8212033B80CCE54570030203E8E541602BE53B14F9893B87068E027B007D0034
:2007DB007E008A2E8B2F8D308E31E5407064AA2EFBFDFE8A2E8B2F8D308E318055E5426081
:2007FB0021E53B24FCFE8E3B8E0187020987030987050987061919198A2E8B2F8D308E31A7
:20081B008030E53B24FEFE8E3B8E01870309870619EEFA3395E0FDFE8B2E8A2F8D308E31C3
:20083B00E540700EAA2EAB2FFDFE8A2E8B2F8D308E31E5406023E53130E71BC3E4952EFB0A
:20085B00E4952FFCE49530FDE49531FE8B2E8C2F8D308E318003754000754401795B7D0058
:20087B007E00753200854582C006C005C00112038FD001D005D006E5447014E532C454F0B4
:20089B00FCE532C4540F4204E7FB4CF7198002A7320DBD00010EE544B40100E433F544E538
:2008BB002E452F4530453170B9894B8D488E49E55245537005755201F553E53D702DE53CB3
:2008DB007029AA52AB53AC480C7E00C3EC9AEE9B5015758220C003C00212033BD002D00324
:2008FB001ABAFF011B80DF8A528B53E540601175822D12033B155274FFB552021553802ED2
:20091B00E54845496028E53E601175822B12033B155274FFB5520215538013E53F600F758D
:20093B00822012033B155274FFB552021553E53C7033AD52AE538D038E041DBDFF011EC3BE
:20095B00E5489BE5499C503EE53D60067B307C0080047B207C008B82C006C00512033BD05A
:20097B0005D00680D1C3E5489552E5499553500FE552C39548F552E5539549F553800BE4F9
:20099B00F552F55380048D528E53A94BAD48AE498D028E041DBDFF011EEA4C6030E544B4CD
:2009BB000100E433F544700A09E7C4540FFC8C3280078704740F5CF532853282C006C005A4
:2009DB00C00112035ED001D005D00680C3E53C70030203E8AD52AE538D038E041DBDFF018C
:2009FB001EEB4C70030203E8758220C006C00512033BD005D00680E08F8212033B0203E8DC
:070A1B00853382853483223C
:0B0A97003C4E4F20464C4F41543E00A7
:1D0A2200E582851BF0A4C582C0F0851CF0A4D0F025F0C583851BF0A42583F583225D
:180A3F00AA82AB83120A576003A380F8C3E5829AF582E5839BF583227C
:0D00210075815B120A73E582600302001E08
:1C0A570020F71430F6148883A88220F507E6A88375830022E280F7E49322E022AE
:040A73007582002266
:1B0A770020F71130F6138883A88220F509F6A8837583002280FEF280F5F0227E
:00000001FF
