:03000000020006F5
:03005F0002000399
:0300030002006296
:2000620012007012009C7582E812007C80F5758920758DFD759850D28E22AF827E00C3EE10
:200082009F500D7D00C3ED9F50030D80F80E80EE228582993099FDC2B5223098FD85990836
:0C00A200850890850882120093C2982205
:06003500E478FFF6D8FD9F
:200013007900E94400601B7A009000B2780175A000E493F2A308B8000205A0D9F4DAF275E1
:02003300A0FF2C
:20003B007800E84400600A790175A000E4F309D8FC7800E84400600C7900900001E4F0A3C3
:04005B00D8FCD9FAFA
:0D0006007581081200AEE582600302000360
:0400AE007582002235
:00000001FF
