:03000000020006F5
:03005F0002000399
:0300030002006296
:10006200C290C2917E007F00C3EE9410EF9427509D
:10007200070EBE00F30F80F0D2907E007F00C3EE29
:0E0082009410EF942750D90EBE00F30F80F0BB
:06003500E478FFF6D8FD9F
:100013007900E94400601B7A00900094780175A090
:1000230000E493F2A308B8000205A0D9F4DAF2754C
:02003300A0FF2C
:10003B007800E84400600A790175A000E4F309D860
:10004B00FC7800E84400600C7900900001E4F0A318
:04005B00D8FCD9FAFA
:0D000600758107120090E58260030200037F
:040090007582002253
:00000001FF
