:03000000020006F5
:03005F0002000399
:0300030002006296
:20006200750877750965750A6C750B63750C6F750D6D750E65750F007582381200D875827E
:20008200011200D87582061200D875820E1200D87582801200D87F0090000875F040C007B9
:2000A2001200FFAD82AE83D0078F037C00C3EB9DEC9E5010EF2408F98782C0071200C8D025
:2000C200070F80D480FE858290D2B0C2B275820A1200E8D2B222858290C2B0C2B275820A8A
:1D00E2001200E8D2B222AF827E00C3EE9F500D7D00C3ED9F50030D80F80E80EE22C3
:06003500E478FFF6D8FD9F
:200013007900E94400601B7A00900137780175A000E493F2A308B8000205A0D9F4DAF2755B
:02003300A0FF2C
:20003B007800E84400600A790175A000E4F309D8FC7800E84400600C7900900001E4F0A3C3
:04005B00D8FCD9FAFA
:1800FF00AA82AB831201176003A380F8C3E5829AF582E5839BF583220F
:0D00060075810F120133E5826003020003D3
:1C01170020F71430F6148883A88220F507E6A88375830022E280F7E49322E022F7
:0401330075820022AF
:00000001FF
