:03000000020006F5
:03005F0002000399
:0300030002008771
:200062007E007F00758901758A00758C00D28C308DFDC28CC28D0EBE00010FC3EE940EEFAF
:11008200940040E022C290120062D29012006280F487
:06003500E478FFF6D8FD9F
:200013007900E94400601B7A00900097780175A000E493F2A308B8000205A0D9F4DAF275FC
:02003300A0FF2C
:20003B007800E84400600A790175A000E4F309D8FC7800E84400600C7900900001E4F0A3C3
:04005B00D8FCD9FAFA
:0D000600758107120093E58260030200037C
:040093007582002250
:00000001FF
